{
  "_format": "hh-sol-artifact-1",
  "contractName": "TransferFeeCollector",
  "sourceName": "contracts/TransferFeeCollector.sol",
  "abi": [
    {
      "inputs": [
        {
          "internalType": "address",
          "name": "_feeRecipient",
          "type": "address"
        }
      ],
      "stateMutability": "nonpayable",
      "type": "constructor"
    },
    {
      "inputs": [
        {
          "internalType": "address",
          "name": "owner",
          "type": "address"
        }
      ],
      "name": "OwnableInvalidOwner",
      "type": "error"
    },
    {
      "inputs": [
        {
          "internalType": "address",
          "name": "account",
          "type": "address"
        }
      ],
      "name": "OwnableUnauthorizedAccount",
      "type": "error"
    },
    {
      "inputs": [],
      "name": "ReentrancyGuardReentrantCall",
      "type": "error"
    },
    {
      "anonymous": false,
      "inputs": [
        {
          "indexed": true,
          "internalType": "address",
          "name": "token",
          "type": "address"
        },
        {
          "indexed": false,
          "internalType": "uint256",
          "name": "amount",
          "type": "uint256"
        },
        {
          "indexed": true,
          "internalType": "address",
          "name": "recipient",
          "type": "address"
        }
      ],
      "name": "FeeCollected",
      "type": "event"
    },
    {
      "anonymous": false,
      "inputs": [
        {
          "indexed": false,
          "internalType": "uint256",
          "name": "newFeeBps",
          "type": "uint256"
        },
        {
          "indexed": false,
          "internalType": "address",
          "name": "newFeeRecipient",
          "type": "address"
        }
      ],
      "name": "FeeConfigUpdated",
      "type": "event"
    },
    {
      "anonymous": false,
      "inputs": [
        {
          "indexed": true,
          "internalType": "address",
          "name": "previousOwner",
          "type": "address"
        },
        {
          "indexed": true,
          "internalType": "address",
          "name": "newOwner",
          "type": "address"
        }
      ],
      "name": "OwnershipTransferred",
      "type": "event"
    },
    {
      "anonymous": false,
      "inputs": [
        {
          "indexed": true,
          "internalType": "address",
          "name": "token",
          "type": "address"
        },
        {
          "indexed": false,
          "internalType": "bool",
          "name": "blacklisted",
          "type": "bool"
        }
      ],
      "name": "TokenBlacklisted",
      "type": "event"
    },
    {
      "anonymous": false,
      "inputs": [
        {
          "indexed": true,
          "internalType": "address",
          "name": "from",
          "type": "address"
        },
        {
          "indexed": true,
          "internalType": "address",
          "name": "to",
          "type": "address"
        },
        {
          "indexed": true,
          "internalType": "address",
          "name": "token",
          "type": "address"
        },
        {
          "indexed": false,
          "internalType": "uint256",
          "name": "amount",
          "type": "uint256"
        },
        {
          "indexed": false,
          "internalType": "uint256",
          "name": "feeAmount",
          "type": "uint256"
        }
      ],
      "name": "TransferWithFee",
      "type": "event"
    },
    {
      "inputs": [
        {
          "components": [
            {
              "internalType": "address",
              "name": "token",
              "type": "address"
            },
            {
              "internalType": "address",
              "name": "recipient",
              "type": "address"
            },
            {
              "internalType": "uint256",
              "name": "amount",
              "type": "uint256"
            }
          ],
          "internalType": "struct TransferFeeCollector.TransferData[]",
          "name": "transfers",
          "type": "tuple[]"
        }
      ],
      "name": "batchTransferERC20",
      "outputs": [],
      "stateMutability": "nonpayable",
      "type": "function"
    },
    {
      "inputs": [
        {
          "internalType": "address",
          "name": "",
          "type": "address"
        }
      ],
      "name": "blacklistedTokens",
      "outputs": [
        {
          "internalType": "bool",
          "name": "",
          "type": "bool"
        }
      ],
      "stateMutability": "view",
      "type": "function"
    },
    {
      "inputs": [
        {
          "internalType": "address",
          "name": "",
          "type": "address"
        }
      ],
      "name": "collectedFees",
      "outputs": [
        {
          "internalType": "uint256",
          "name": "",
          "type": "uint256"
        }
      ],
      "stateMutability": "view",
      "type": "function"
    },
    {
      "inputs": [
        {
          "internalType": "address",
          "name": "token",
          "type": "address"
        },
        {
          "internalType": "uint256",
          "name": "amount",
          "type": "uint256"
        }
      ],
      "name": "emergencyWithdraw",
      "outputs": [],
      "stateMutability": "nonpayable",
      "type": "function"
    },
    {
      "inputs": [],
      "name": "feeBps",
      "outputs": [
        {
          "internalType": "uint256",
          "name": "",
          "type": "uint256"
        }
      ],
      "stateMutability": "view",
      "type": "function"
    },
    {
      "inputs": [],
      "name": "feeRecipient",
      "outputs": [
        {
          "internalType": "address",
          "name": "",
          "type": "address"
        }
      ],
      "stateMutability": "view",
      "type": "function"
    },
    {
      "inputs": [
        {
          "internalType": "uint256",
          "name": "amount",
          "type": "uint256"
        }
      ],
      "name": "getFeeAmount",
      "outputs": [
        {
          "internalType": "uint256",
          "name": "",
          "type": "uint256"
        }
      ],
      "stateMutability": "view",
      "type": "function"
    },
    {
      "inputs": [
        {
          "internalType": "address",
          "name": "token",
          "type": "address"
        }
      ],
      "name": "getFeesCollectedForToken",
      "outputs": [
        {
          "internalType": "uint256",
          "name": "fees",
          "type": "uint256"
        }
      ],
      "stateMutability": "view",
      "type": "function"
    },
    {
      "inputs": [
        {
          "internalType": "address[]",
          "name": "tokens",
          "type": "address[]"
        }
      ],
      "name": "getFeesCollectedForTokens",
      "outputs": [
        {
          "internalType": "uint256[]",
          "name": "fees",
          "type": "uint256[]"
        }
      ],
      "stateMutability": "view",
      "type": "function"
    },
    {
      "inputs": [
        {
          "internalType": "uint256",
          "name": "amount",
          "type": "uint256"
        }
      ],
      "name": "getTotalAmount",
      "outputs": [
        {
          "internalType": "uint256",
          "name": "",
          "type": "uint256"
        }
      ],
      "stateMutability": "view",
      "type": "function"
    },
    {
      "inputs": [],
      "name": "getTotalFeesCollected",
      "outputs": [
        {
          "internalType": "uint256",
          "name": "totalFees",
          "type": "uint256"
        }
      ],
      "stateMutability": "view",
      "type": "function"
    },
    {
      "inputs": [
        {
          "internalType": "address",
          "name": "token",
          "type": "address"
        }
      ],
      "name": "isTokenBlacklisted",
      "outputs": [
        {
          "internalType": "bool",
          "name": "",
          "type": "bool"
        }
      ],
      "stateMutability": "view",
      "type": "function"
    },
    {
      "inputs": [],
      "name": "owner",
      "outputs": [
        {
          "internalType": "address",
          "name": "",
          "type": "address"
        }
      ],
      "stateMutability": "view",
      "type": "function"
    },
    {
      "inputs": [],
      "name": "renounceOwnership",
      "outputs": [],
      "stateMutability": "nonpayable",
      "type": "function"
    },
    {
      "inputs": [
        {
          "internalType": "address",
          "name": "token",
          "type": "address"
        },
        {
          "internalType": "bool",
          "name": "blacklisted",
          "type": "bool"
        }
      ],
      "name": "setTokenBlacklist",
      "outputs": [],
      "stateMutability": "nonpayable",
      "type": "function"
    },
    {
      "inputs": [
        {
          "internalType": "address",
          "name": "token",
          "type": "address"
        },
        {
          "internalType": "address",
          "name": "recipient",
          "type": "address"
        },
        {
          "internalType": "uint256",
          "name": "amount",
          "type": "uint256"
        }
      ],
      "name": "transferERC20",
      "outputs": [],
      "stateMutability": "nonpayable",
      "type": "function"
    },
    {
      "inputs": [
        {
          "internalType": "address",
          "name": "recipient",
          "type": "address"
        },
        {
          "internalType": "uint256",
          "name": "amount",
          "type": "uint256"
        }
      ],
      "name": "transferETH",
      "outputs": [],
      "stateMutability": "payable",
      "type": "function"
    },
    {
      "inputs": [
        {
          "internalType": "address",
          "name": "newOwner",
          "type": "address"
        }
      ],
      "name": "transferOwnership",
      "outputs": [],
      "stateMutability": "nonpayable",
      "type": "function"
    },
    {
      "inputs": [
        {
          "internalType": "uint256",
          "name": "newFeeBps",
          "type": "uint256"
        },
        {
          "internalType": "address",
          "name": "newFeeRecipient",
          "type": "address"
        }
      ],
      "name": "updateFeeConfig",
      "outputs": [],
      "stateMutability": "nonpayable",
      "type": "function"
    },
    {
      "stateMutability": "payable",
      "type": "receive"
    }
  ],
  "bytecode": "0x608060405260326002553480156200001657600080fd5b506040516200198a3803806200198a833981016040819052620000399162000134565b33806200006157604051631e4fbdf760e01b8152600060048201526024015b60405180910390fd5b6200006c81620000e4565b5060018055600380546001600160a01b0319166001600160a01b038316908117909155620000dd5760405162461bcd60e51b815260206004820152601560248201527f496e76616c69642066656520726563697069656e740000000000000000000000604482015260640162000058565b5062000166565b600080546001600160a01b038381166001600160a01b0319831681178455604051919092169283917f8be0079c531659141344cd1fd0a4f28419497f9722a3daafe3b4186f6b6457e09190a35050565b6000602082840312156200014757600080fd5b81516001600160a01b03811681146200015f57600080fd5b9392505050565b61181480620001766000396000f3fe6080604052600436106101185760003560e01c80637b1a4909116100a05780639db5dbe4116100645780639db5dbe41461035e578063ce9be9ba1461037e578063f0e40662146103b7578063f2fde38b146103d7578063ffc29ab2146103f757600080fd5b80637b1a4909146102cd57806388f0bc73146102e05780638da5cb5b1461030057806395ccea671461031e5780639704122c1461033e57600080fd5b806324a9d853116100e757806324a9d853146101ed578063468765081461020357806346904840146102405780635c8b5f4414610278578063715018a6146102b857600080fd5b806314488bd6146101245780631ab2bd361461015a5780631cead9a71461019e5780631ff0769a146101cb57600080fd5b3661011f57005b600080fd5b34801561013057600080fd5b5061014461013f3660046113e5565b610417565b604051610151919061145a565b60405180910390f35b34801561016657600080fd5b506101906101753660046114ba565b6001600160a01b031660009081526004602052604090205490565b604051908152602001610151565b3480156101aa57600080fd5b506101906101b93660046114ba565b60046020526000908152604090205481565b3480156101d757600080fd5b506101eb6101e63660046114ea565b6104ec565b005b3480156101f957600080fd5b5061019060025481565b34801561020f57600080fd5b506000805260046020527f17ef568e3e12ab5b9c7254a8d58478811de00f9e6eb34345acd53bf8fd09d3ec54610190565b34801561024c57600080fd5b50600354610260906001600160a01b031681565b6040516001600160a01b039091168152602001610151565b34801561028457600080fd5b506102a86102933660046114ba565b60056020526000908152604090205460ff1681565b6040519015158152602001610151565b3480156102c457600080fd5b506101eb6105a6565b6101eb6102db366004611521565b6105ba565b3480156102ec57600080fd5b506101eb6102fb36600461154b565b610940565b34801561030c57600080fd5b506000546001600160a01b0316610260565b34801561032a57600080fd5b506101eb610339366004611521565b610a41565b34801561034a57600080fd5b50610190610359366004611577565b610b89565b34801561036a57600080fd5b506101eb610379366004611590565b610ba6565b34801561038a57600080fd5b506102a86103993660046114ba565b6001600160a01b031660009081526005602052604090205460ff1690565b3480156103c357600080fd5b506101906103d2366004611577565b610ef4565b3480156103e357600080fd5b506101eb6103f23660046114ba565b610f1b565b34801561040357600080fd5b506101eb6104123660046115cc565b610f59565b60608167ffffffffffffffff8111156104325761043261162f565b60405190808252806020026020018201604052801561045b578160200160208202803683370190505b50905060005b828110156104e4576004600085858481811061047f5761047f611645565b905060200201602081019061049491906114ba565b6001600160a01b03166001600160a01b03168152602001908152602001600020548282815181106104c7576104c7611645565b6020908102919091010152806104dc81611671565b915050610461565b505b92915050565b6104f461133e565b6001600160a01b0382166105475760405162461bcd60e51b8152602060048201526015602482015274496e76616c696420746f6b656e206164647265737360581b60448201526064015b60405180910390fd5b6001600160a01b038216600081815260056020908152604091829020805460ff191685151590811790915591519182527fced2684241c29578df8f7fbab74348d0053114fa157b900b2f1f4a1d4a2b3395910160405180910390a25050565b6105ae61133e565b6105b8600061136b565b565b6105c26113bb565b6001600160a01b0382166105e85760405162461bcd60e51b815260040161053e9061168a565b600081116106085760405162461bcd60e51b815260040161053e906116b5565b60006127106002548361061b91906116ec565b6106259190611703565b905060006106338284611725565b90508034101561067d5760405162461bcd60e51b8152602060048201526015602482015274125b9cdd59999a58da595b9d08115512081cd95b9d605a1b604482015260640161053e565b6000846001600160a01b03168460405160006040518083038185875af1925050503d80600081146106ca576040519150601f19603f3d011682016040523d82523d6000602084013e6106cf565b606091505b50509050806107205760405162461bcd60e51b815260206004820152601c60248201527f5472616e7366657220746f20726563697069656e74206661696c656400000000604482015260640161053e565b6003546040516000916001600160a01b03169085908381818185875af1925050503d806000811461076d576040519150601f19603f3d011682016040523d82523d6000602084013e610772565b606091505b50509050806107bb5760405162461bcd60e51b81526020600482015260156024820152741199594818dbdb1b1958dd1a5bdb8819985a5b1959605a1b604482015260640161053e565b60006107c78434611738565b9050801561086057604051600090339083908381818185875af1925050503d8060008114610811576040519150601f19603f3d011682016040523d82523d6000602084013e610816565b606091505b505090508061085e5760405162461bcd60e51b8152602060048201526014602482015273115e18d95cdcc81c99599d5b990819985a5b195960621b604482015260640161053e565b505b600080805260046020527f17ef568e3e12ab5b9c7254a8d58478811de00f9e6eb34345acd53bf8fd09d3ec805487929061089b908490611725565b909155505060408051878152602081018790526000916001600160a01b038a169133917f49d9db09147948cd7633935be298b938cd8658622997838f98ef631fd3c32441910160405180910390a46003546040518681526001600160a01b03909116906000907f36119f4f28ae3384ed31589f21ec2992cb0ebe53b11c79a24466ee74471764ed9060200160405180910390a3505050505061093c60018055565b5050565b61094861133e565b6103e88211156109925760405162461bcd60e51b81526020600482015260156024820152744665652063616e6e6f74206578636565642031302560581b604482015260640161053e565b6001600160a01b0381166109e05760405162461bcd60e51b8152602060048201526015602482015274125b9d985b1a5908199959481c9958da5c1a595b9d605a1b604482015260640161053e565b6002829055600380546001600160a01b0319166001600160a01b0383169081179091556040805184815260208101929092527fe125ae54d7ba2b06e6f44852861516acb2dd2692cf41fb127fa03252f15b334e910160405180910390a15050565b610a4961133e565b6001600160a01b038216610af757600080546040516001600160a01b039091169083908381818185875af1925050503d8060008114610aa4576040519150601f19603f3d011682016040523d82523d6000602084013e610aa9565b606091505b5050905080610af25760405162461bcd60e51b8152602060048201526015602482015274115512081dda5d1a191c985dd85b0819985a5b1959605a1b604482015260640161053e565b505050565b816001600160a01b031663a9059cbb610b186000546001600160a01b031690565b6040516001600160e01b031960e084901b1681526001600160a01b039091166004820152602481018490526044016020604051808303816000875af1158015610b65573d6000803e3d6000fd5b505050506040513d601f19601f82011682018060405250810190610af2919061174b565b600061271060025483610b9c91906116ec565b6104e69190611703565b610bae6113bb565b6001600160a01b038316610bf45760405162461bcd60e51b815260206004820152600d60248201526c24b73b30b634b2103a37b5b2b760991b604482015260640161053e565b6001600160a01b038216610c1a5760405162461bcd60e51b815260040161053e9061168a565b60008111610c3a5760405162461bcd60e51b815260040161053e906116b5565b6001600160a01b03831660009081526005602052604090205460ff1615610c9a5760405162461bcd60e51b8152602060048201526014602482015273151bdad95b881a5cc8189b1858dadb1a5cdd195960621b604482015260640161053e565b600061271060025483610cad91906116ec565b610cb79190611703565b90506000610cc58284611725565b6040516323b872dd60e01b8152336004820152306024820152604481018290529091506001600160a01b038616906323b872dd906064016020604051808303816000875af1158015610d1b573d6000803e3d6000fd5b505050506040513d601f19601f82011682018060405250810190610d3f919061174b565b5060405163a9059cbb60e01b81526001600160a01b0385811660048301526024820185905286169063a9059cbb906044016020604051808303816000875af1158015610d8f573d6000803e3d6000fd5b505050506040513d601f19601f82011682018060405250810190610db3919061174b565b5060035460405163a9059cbb60e01b81526001600160a01b039182166004820152602481018490529086169063a9059cbb906044016020604051808303816000875af1158015610e07573d6000803e3d6000fd5b505050506040513d601f19601f82011682018060405250810190610e2b919061174b565b506001600160a01b03851660009081526004602052604081208054849290610e54908490611725565b909155505060408051848152602081018490526001600160a01b03808816929087169133917f49d9db09147948cd7633935be298b938cd8658622997838f98ef631fd3c32441910160405180910390a46003546040518381526001600160a01b03918216918716907f36119f4f28ae3384ed31589f21ec2992cb0ebe53b11c79a24466ee74471764ed9060200160405180910390a35050610af260018055565b600061271060025483610f0791906116ec565b610f119190611703565b6104e69083611725565b610f2361133e565b6001600160a01b038116610f4d57604051631e4fbdf760e01b81526000600482015260240161053e565b610f568161136b565b50565b610f616113bb565b60005b81811015611334576000838383818110610f8057610f80611645565b905060600201803603810190610f969190611768565b80519091506001600160a01b0316610fe05760405162461bcd60e51b815260206004820152600d60248201526c24b73b30b634b2103a37b5b2b760991b604482015260640161053e565b60208101516001600160a01b031661100a5760405162461bcd60e51b815260040161053e9061168a565b600081604001511161102e5760405162461bcd60e51b815260040161053e906116b5565b80516001600160a01b031660009081526005602052604090205460ff161561108f5760405162461bcd60e51b8152602060048201526014602482015273151bdad95b881a5cc8189b1858dadb1a5cdd195960621b604482015260640161053e565b600061271060025483604001516110a691906116ec565b6110b09190611703565b905060008183604001516110c49190611725565b83516040516323b872dd60e01b8152336004820152306024820152604481018390529192506001600160a01b0316906323b872dd906064016020604051808303816000875af115801561111b573d6000803e3d6000fd5b505050506040513d601f19601f8201168201806040525081019061113f919061174b565b5082516020840151604080860151905163a9059cbb60e01b81526001600160a01b039283166004820152602481019190915291169063a9059cbb906044016020604051808303816000875af115801561119c573d6000803e3d6000fd5b505050506040513d601f19601f820116820180604052508101906111c0919061174b565b50825160035460405163a9059cbb60e01b81526001600160a01b0391821660048201526024810185905291169063a9059cbb906044016020604051808303816000875af1158015611215573d6000803e3d6000fd5b505050506040513d601f19601f82011682018060405250810190611239919061174b565b5082516001600160a01b031660009081526004602052604081208054849290611263908490611725565b9250508190555082600001516001600160a01b031683602001516001600160a01b0316336001600160a01b03167f49d9db09147948cd7633935be298b938cd8658622997838f98ef631fd3c324418660400151866040516112ce929190918252602082015260400190565b60405180910390a460035483516040518481526001600160a01b0392831692909116907f36119f4f28ae3384ed31589f21ec2992cb0ebe53b11c79a24466ee74471764ed9060200160405180910390a3505050808061132c90611671565b915050610f64565b5061093c60018055565b6000546001600160a01b031633146105b85760405163118cdaa760e01b815233600482015260240161053e565b600080546001600160a01b038381166001600160a01b0319831681178455604051919092169283917f8be0079c531659141344cd1fd0a4f28419497f9722a3daafe3b4186f6b6457e09190a35050565b6002600154036113de57604051633ee5aeb560e01b815260040160405180910390fd5b6002600155565b600080602083850312156113f857600080fd5b823567ffffffffffffffff8082111561141057600080fd5b818501915085601f83011261142457600080fd5b81358181111561143357600080fd5b8660208260051b850101111561144857600080fd5b60209290920196919550909350505050565b6020808252825182820181905260009190848201906040850190845b8181101561149257835183529284019291840191600101611476565b50909695505050505050565b80356001600160a01b03811681146114b557600080fd5b919050565b6000602082840312156114cc57600080fd5b6114d58261149e565b9392505050565b8015158114610f5657600080fd5b600080604083850312156114fd57600080fd5b6115068361149e565b91506020830135611516816114dc565b809150509250929050565b6000806040838503121561153457600080fd5b61153d8361149e565b946020939093013593505050565b6000806040838503121561155e57600080fd5b8235915061156e6020840161149e565b90509250929050565b60006020828403121561158957600080fd5b5035919050565b6000806000606084860312156115a557600080fd5b6115ae8461149e565b92506115bc6020850161149e565b9150604084013590509250925092565b600080602083850312156115df57600080fd5b823567ffffffffffffffff808211156115f757600080fd5b818501915085601f83011261160b57600080fd5b81358181111561161a57600080fd5b86602060608302850101111561144857600080fd5b634e487b7160e01b600052604160045260246000fd5b634e487b7160e01b600052603260045260246000fd5b634e487b7160e01b600052601160045260246000fd5b6000600182016116835761168361165b565b5060010190565b602080825260119082015270125b9d985b1a59081c9958da5c1a595b9d607a1b604082015260600190565b6020808252601d908201527f416d6f756e74206d7573742062652067726561746572207468616e2030000000604082015260600190565b80820281158282048414176104e6576104e661165b565b60008261172057634e487b7160e01b600052601260045260246000fd5b500490565b808201808211156104e6576104e661165b565b818103818111156104e6576104e661165b565b60006020828403121561175d57600080fd5b81516114d5816114dc565b60006060828403121561177a57600080fd5b6040516060810181811067ffffffffffffffff821117156117ab57634e487b7160e01b600052604160045260246000fd5b6040526117b78361149e565b81526117c56020840161149e565b602082015260408301356040820152809150509291505056fea2646970667358221220e270b3f3e5a2a20fa1ae7bbe3212ab446a68c6690d52879b11f0f038c629877364736f6c63430008140033",
  "linkReferences": {},
  "deployedLinkReferences": {}
}